:100000000C942A000C943F000C943F000C943F0089
:100010000C943F000C943F000C943F000C943F0064
:100020000C943F000C943F000C943F000C943F0054
:100030000C943F000C943F000C943F000C943F0044
:100040000C943F000C943F000C943F000C943F0034
:100050000C943F0011241FBECFE5D8E0DEBFCDBF1A
:1000600010E0A0E6B0E0ECECFEE102C005900D92DD
:10007000AC3BB107D9F70E943B0D0C94640F0C9474
:100080000000EF92FF920F931F937B018C0120E001
:1000900030E040E05FE40E94410388238CF0C80117
:1000A000B70120E030E040E05FE40E94B9010E9427
:1000B000A1039B01AC01205030404040504806C095
:1000C000C801B7010E94A1039B01AC01B901CA019B
:1000D0001F910F91FF90EF900895A0E0B0E0E3E74B
:1000E000F0E00C942D0FDC012B01FA019C91923071
:1000F00008F439C1EB018881823008F433C19430AF
:1001000069F4843009F02FC111969C91119789816F
:10011000981709F428C1ACE9B0E025C1843009F48E
:1001200021C18230A9F4923009F01DC19A01AD01BC
:1001300088E0EA010990AE01E90109929E0181502F
:10014000C1F7E201898111969C918923818308C1BD
:10015000923009F407C112962D903C901397EB0151
:100160008A819B811496AD90BD90CD90DC901797BD
:10017000EC80FD800E811F819101281B390BB90194
:1001800037FF04C066277727621B730B6032710547
:100190000CF061C0121613066CF537014801062EEB
:1001A00004C096948794779467940A94D2F721E0D8
:1001B00030E040E050E004C0220F331F441F551FC1
:1001C0006A95D2F721503040404050402E213F21C7
:1001D00040235123211531054105510521F021E02E
:1001E00030E040E050E079018A01E628F72808294C
:1001F00019293CC0232BD1F1260E371E35014601AB
:10020000062E04C096948794779467940A94D2F744
:1002100021E030E040E050E004C0220F331F441FD3
:10022000551F6A95D2F721503040404050402A2156
:100230003B214C215D21211531054105510521F05E
:1002400021E030E040E050E059016A01A628B728DB
:10025000C828D9280BC0821593052CF01C01AA24AC
:10026000BB24650103C0EE24FF24870111969C91F5
:10027000D20111968C91981709F445C0992339F051
:10028000A80197012A193B094C095D0906C0A6017E
:1002900095012E193F09400B510B57FD08C01182E3
:1002A0003382228224833583468357831DC081E0B5
:1002B00081833382228288279927DC01821B930B5A
:1002C000A40BB50B84839583A683B7830DC0220F3F
:1002D000331F441F551F24833583468357838281F0
:1002E000938101979383828324813581468157814D
:1002F000DA01C9010197A109B1098F5F9F4FAF4F83
:10030000BF4328F30BC0918333822282EA0CFB1C8B
:100310000C1D1D1DE482F5820683178383E0808314
:10032000248135814681578157FF1AC0C901AA2708
:1003300097FDA095BA2F81709070A070B0705695FF
:10034000479537952795822B932BA42BB52B848328
:100350009583A683B7838281938101969383828359
:10036000DF0101C0D201CD01CDB7DEB7E2E10C94CF
:10037000490FA0E2B0E0EFEBF1E00C94390F698394
:100380007A838B839C832D833E834F835887E9E058
:10039000EE2EF12CEC0EFD1ECE010196B7010E944F
:1003A000CA048E010F5E1F4FCE010596B8010E9450
:1003B000CA048A8991E089278A8BC701B801AE01F6
:1003C000475E5F4F0E946D000E94F503A096E6E035
:1003D0000C94550FA0E2B0E0E0EFF1E00C94390F7F
:1003E00069837A838B839C832D833E834F835887D5
:1003F000F9E0EF2EF12CEC0EFD1ECE010196B701B7
:100400000E94CA048E010F5E1F4FCE010596B801EF
:100410000E94CA04C701B801AE01475E5F4F0E9447
:100420006D000E94F503A096E6E00C94550FA0E243
:10043000B0E0EDE1F2E00C942D0F69837A838B83B9
:100440009C832D833E834F835887CE010196BE0146
:10045000675F7F4F0E94CA04CE010596BE016F5EA2
:100460007F4F0E94CA049985923088F08989823032
:10047000C8F0943019F4823051F404C0843029F467
:10048000923081F48CE990E0C6C0923049F420E0CB
:100490009A858A89981321E02A87CE010996BBC0E4
:1004A000823049F420E09A858A89981321E02A8BCA
:1004B000CE014196B0C02D843E844F8458886D880B
:1004C0007E888F88988CEE24FF248701AA24BB2481
:1004D000650140E050E060E070E0E0E0F0E0C10184
:1004E00081709070892BE9F0E60CF71C081D191D2E
:1004F0009A01AB012A0D3B1D4C1D5D1D80E090E073
:10050000A0E0B0E0E614F7040805190520F481E046
:1005100090E0A0E0B0E0BA01A901480F591F6A1F9E
:100520007B1FAA0CBB1CCC1CDD1C97FE08C081E005
:1005300090E0A0E0B0E0A82AB92ACA2ADB2A3196C6
:10054000E032F10549F0660C771C881C991C569422
:10055000479437942794C3CFFA85EA892B893C893D
:100560008B859C85280F391F2E5F3F4F17C0CA010E
:1005700081709070892B61F016950795F794E79438
:1005800080E090E0A0E0B0E8E82AF92A0A2B1B2BD3
:1005900076956795579547952F5F3F4F77FDE7CF46
:1005A0000CC0440F551F661F771F17FD4160EE0CEE
:1005B000FF1C001F111F21503040403090E05907B0
:1005C00090E0690790E4790760F32B8F3C8FDB01A3
:1005D000CA018F779070A070B07080349105A1052A
:1005E000B10561F447FD0AC0E114F10401051105EC
:1005F00029F0405C5F4F6F4F7F4F40781A8EFE1797
:1006000011F081E08A8F4D8F5E8F6F8F78A383E02A
:10061000898FCE0149960E94F503A096E2E10C94E1
:10062000490FA8E1B0E0E7E1F3E00C94390F6983EA
:100630007A838B839C832D833E834F83588789E005
:10064000E82EF12CEC0EFD1ECE010196B7010E94A2
:10065000CA048E010F5E1F4FCE010596B8010E949D
:10066000CA048985823040F08989823028F0C70128
:10067000B8010E94420501C08FEF6896E6E00C9435
:10068000550FA8E1B0E0E7E4F3E00C94390F69837B
:100690007A838B839C832D833E834F83588789E0A5
:1006A000E82EF12CEC0EFD1ECE010196B7010E9442
:1006B000CA048E010F5E1F4FCE010596B8010E943D
:1006C000CA048985823040F08989823028F0C701C8
:1006D000B8010E94420501C08FEF6896E6E00C94D5
:1006E000550FA8E1B0E0E7E7F3E00C94390F698318
:1006F0007A838B839C832D833E834F83588789E045
:10070000E82EF12CEC0EFD1ECE010196B7010E94E1
:10071000CA048E010F5E1F4FCE010596B8010E94DC
:10072000CA048985823040F08989823028F0C70167
:10073000B8010E94420501C081E06896E6E00C9491
:10074000550FACE0B0E0E7EAF3E00C943D0F6983AD
:100750007A838B839C83CE010196BE016B5F7F4FB2
:100760000E94CA048D81823061F1823050F1843060
:1007700021F48E81882351F12EC02F81388537FDD9
:1007800020C06E812F3131051CF06623F9F023C0A3
:100790008EE190E0821B930B29853A854B855C8521
:1007A00004C056954795379527958A95D2F76623C5
:1007B000B1F050954095309521953F4F4F4F5F4F89
:1007C0000EC020E030E040E050E009C02FEF3FEFE6
:1007D0004FEF5FE704C020E030E040E050E8B901AF
:1007E000CA012C96E2E00C94590FDF92EF92FF922F
:1007F0000F931F93FC01E480F58006811781D1805F
:100800008081823048F480E090E0A0E1B0E0E82A06
:10081000F92A0A2B1B2BA5C0843009F49FC0823013
:1008200021F4EE24FF24870105C0E114F104010541
:10083000110519F4E0E0F0E096C0628173819FEF4A
:10084000623879070CF05BC022E83FEF261B370BBC
:100850002A3131052CF020E030E040E050E02AC0A1
:10086000B801A701022E04C0769567955795479564
:100870000A94D2F781E090E0A0E0B0E004C0880FD5
:10088000991FAA1FBB1F2A95D2F70197A109B10989
:100890008E219F21A023B1230097A105B10521F04E
:1008A00081E090E0A0E0B0E09A01AB01282B392B69
:1008B0004A2B5B2BDA01C9018F779070A070B07062
:1008C00080349105A105B10539F427FF09C0205CEA
:1008D0003F4F4F4F5F4F04C0215C3F4F4F4F5F4F23
:1008E000E0E0F0E02030A0E03A07A0E04A07A0E412
:1008F0005A0710F0E1E0F0E079018A0127C0603882
:10090000710564F5FB01E158FF4FD801C7018F77EE
:100910009070A070B07080349105A105B10539F4D4
:10092000E7FE0DC080E490E0A0E0B0E004C08FE3FB
:1009300090E0A0E0B0E0E80EF91E0A1F1B1F17FFB1
:1009400005C016950795F794E794319687E01695BC
:100950000795F794E7948A95D1F705C0EE24FF2414
:100960008701EFEFF0E06E2F679566276795902F70
:100970009F77D794DD24D7948E2F8695492F462BC9
:10098000582F5D29B701CA011F910F91FF90EF9079
:10099000DF900895FC01DB01408151812281622FAB
:1009A0006F7770E0221F2227221F9381892F880FE3
:1009B000822B282F30E0991F9927991F11969C931D
:1009C000119721153105A9F54115510561057105ED
:1009D00011F482E037C082E89FEF13969C938E93C8
:1009E00012979A01AB0167E0220F331F441F551F76
:1009F0006A95D1F783E08C930DC0220F331F441FFB
:100A0000551F12968D919C911397019713969C9365
:100A10008E931297203080E0380780E0480780E40A
:100A2000580758F314962D933D934D935C93179765
:100A300008952F3F310579F4411551056105710580
:100A400019F484E08C93089564FF03C081E08C93D3
:100A500012C01C9210C02F57304013963C932E9317
:100A6000129783E08C9387E0440F551F661F771F12
:100A70008A95D1F7706414964D935D936D937C9332
:100A8000179708951F93DC01FB019C91923008F4A5
:100A900047C08081823008F443C0943051F41196ED
:100AA0001C91843099F58181682F70E0611B710978
:100AB0003FC0843021F0923031F48230B9F181812D
:100AC000882389F12DC011961C9111978230F1F085
:100AD00081811817D9F412962D913C911397828138
:100AE00093818217930794F028173907BCF0149666
:100AF0008D919D910D90BC91A02D248135814681D1
:100B00005781281739074A075B0718F4112341F06A
:100B10000AC082179307A407B50740F4112319F000
:100B200061E070E005C06FEF7FEF02C060E070E051
:100B3000CB011F910895DF93CF93CDB7DEB72797F1
:100B40000FB6F894DEBF0FBECDBF89836A834B8397
:100B50008B81882309F074C08981282F30E03F837E
:100B60002E838E819F818130910559F12E813F81A5
:100B7000223031052CF48E819F81009769F0D2C01C
:100B80002E813F812230310589F18E819F81833012
:100B9000910509F440C0C6C0AAE3B0E0EAE3F0E082
:100BA0008081482F8A81282F30E081E090E0022E5A
:100BB00002C0880F991F0A94E2F7809584238C93D2
:100BC000B1C0A7E3B0E0E7E3F0E08081482F8A817D
:100BD000282F30E081E090E0022E02C0880F991F9C
:100BE0000A94E2F7809584238C939CC0A4E3B0E040
:100BF000E4E3F0E08081482F8A81282F30E081E013
:100C000090E0022E02C0880F991F0A94E2F78095A7
:100C100084238C9387C0A1E3B0E0E1E3F0E080811E
:100C2000482F8A81282F30E081E090E0022E02C018
:100C3000880F991F0A94E2F7809584238C9372C0E1
:100C40008B81813009F06EC08981282F30E03D838F
:100C50002C838C819D818130910549F12C813D81CE
:100C6000223031052CF48C819D81009761F05AC0AF
:100C70002C813D812230310571F18C819D81833041
:100C80009105E9F14FC0AAE3B0E0EAE3F0E080812A
:100C9000482F8A81282F30E081E090E0022E02C0A8
:100CA000880F991F0A94E2F7842B8C933BC0A7E32B
:100CB000B0E0E7E3F0E08081482F8A81282F30E020
:100CC00081E090E0022E02C0880F991F0A94E2F79B
:100CD000842B8C9327C0A4E3B0E0E4E3F0E08081B0
:100CE000482F8A81282F30E081E090E0022E02C058
:100CF000880F991F0A94E2F7842B8C9313C0A1E309
:100D0000B0E0E1E3F0E08081482F8A81282F30E0D5
:100D100081E090E0022E02C0880F991F0A94E2F74A
:100D2000842B8C9327960FB6F894DEBF0FBECDBFF1
:100D3000CF91DF910895DF93CF93CDB7DEB727979B
:100D40000FB6F894DEBF0FBECDBF89836A834B8395
:100D50008B81882309F074C08981282F30E03F837C
:100D60002E838E819F818130910559F12E813F81A3
:100D7000223031052CF48E819F81009769F0D2C01A
:100D80002E813F812230310589F18E819F81833010
:100D9000910509F440C0C6C0ABE3B0E0EBE3F0E07E
:100DA0008081482F8A81282F30E081E090E0022E58
:100DB00002C0880F991F0A94E2F7809584238C93D0
:100DC000B1C0A8E3B0E0E8E3F0E08081482F8A8179
:100DD000282F30E081E090E0022E02C0880F991F9A
:100DE0000A94E2F7809584238C939CC0A5E3B0E03D
:100DF000E5E3F0E08081482F8A81282F30E081E010
:100E000090E0022E02C0880F991F0A94E2F78095A5
:100E100084238C9387C0A2E3B0E0E2E3F0E080811A
:100E2000482F8A81282F30E081E090E0022E02C016
:100E3000880F991F0A94E2F7809584238C9372C0DF
:100E40008B81813009F06EC08981282F30E03D838D
:100E50002C838C819D818130910549F12C813D81CC
:100E6000223031052CF48C819D81009761F05AC0AD
:100E70002C813D812230310571F18C819D8183303F
:100E80009105E9F14FC0ABE3B0E0EBE3F0E0808126
:100E9000482F8A81282F30E081E090E0022E02C0A6
:100EA000880F991F0A94E2F7842B8C933BC0A8E328
:100EB000B0E0E8E3F0E08081482F8A81282F30E01D
:100EC00081E090E0022E02C0880F991F0A94E2F799
:100ED000842B8C9327C0A5E3B0E0E5E3F0E08081AC
:100EE000482F8A81282F30E081E090E0022E02C056
:100EF000880F991F0A94E2F7842B8C9313C0A2E306
:100F0000B0E0E2E3F0E08081482F8A81282F30E0D2
:100F100081E090E0022E02C0880F991F0A94E2F748
:100F2000842B8C9327960FB6F894DEBF0FBECDBFEF
:100F3000CF91DF910895DF93CF9300D000D000D000
:100F4000CDB7DEB789836A835C834B838981282F81
:100F500030E03E832D834D815E814130510559F152
:100F60008D819E818230910534F42D813E81211541
:100F7000310569F05BC04D815E814230510579F1E8
:100F80008D819E818330910509F43DC04FC0E9E316
:100F9000F0E08081282F30E08A81882F90E0A9013D
:100FA00002C0559547958A95E2F7CA018170EB8199
:100FB000FC8180833BC0E6E3F0E08081282F30E0B5
:100FC0008A81882F90E0A90102C0559547958A959E
:100FD000E2F7CA018170EB81FC81808327C0E3E3E3
:100FE000F0E08081282F30E08A81882F90E0A901ED
:100FF00002C0559547958A95E2F7CA018170EB8149
:10100000FC81808313C0E0E3F0E08081282F30E092
:101010008A81882F90E0A90102C0559547958A954D
:10102000E2F7CA018170EB81FC81808326960FB6BE
:10103000F894DEBF0FBECDBFCF91DF910895DF934F
:10104000CF9300D000D000D0CDB7DEB789836A83BC
:101050008A81813099F58981282F30E03E832D8364
:101060008D819E8181309105D1F02D813E8122308C
:1010700031052CF48D819E81009761F050C02D8147
:101080003E812230310581F08D819E818330910532
:1010900081F045C0EAE3F0E08FEF808340C0E7E3F2
:1010A000F0E08FEF80833BC0E4E3F0E08FEF8083DC
:1010B00036C0E1E3F0E08FEF808331C08A8188237E
:1010C00071F58981282F30E03C832B838B819C81B3
:1010D00081309105C9F02B813C81223031052CF4FF
:1010E0008B819C81009761F01AC02B813C8122305A
:1010F000310571F08B819C818330910569F00FC0BF
:10110000EAE3F0E010820BC0E7E3F0E0108207C0F2
:10111000E4E3F0E0108203C0E1E3F0E01082269601
:101120000FB6F894DEBF0FBECDBFCF91DF9108950B
:10113000DF93CF9300D000D0CDB7DEB789836A8329
:101140008981282F30E03C832B838B819C818130E7
:101150009105D1F02B813C81223031052CF48B811B
:101160009C81009761F01EC02B813C8122303105AB
:1011700081F08B819C818330910581F013C0EBE37A
:10118000F0E08A8180830EC0E8E3F0E08A8180830A
:1011900009C0E5E3F0E08A81808304C0E2E3F0E087
:1011A0008A8180830F900F900F900F90CF91DF91E5
:1011B0000895DF93CF9300D000D00F92CDB7DEB764
:1011C00089837B836A838981282F30E03D832C8348
:1011D0008C819D8181309105E1F02C813D8122300F
:1011E00031052CF48C819D81009761F026C02C8103
:1011F0003D8122303105A1F08C819D8183309105A4
:10120000B1F01BC0EBE3F0E08081EA81FB818083D9
:1012100014C0E8E3F0E08081EA81FB8180830DC0A7
:10122000E5E3F0E08081EA81FB81808306C0E2E3B0
:10123000F0E08081EA81FB8180830F900F900F9016
:101240000F900F90CF91DF910895DF93CF9300D04F
:101250000F92CDB7DEB789836A834B830F900F90CF
:101260000F90CF91DF910895DF93CF93CDB7DEB785
:101270002F970FB6F894DEBF0FBECDBF8F8783E0E8
:1012800060E041E00E949B0683E061E040E00E9454
:101290009B0682E06F850E94980883E062E041E04F
:1012A0000E949B0680E090E0A0E4B0E48B879C87DE
:1012B000AD87BE876B857C858D859E8520E030E07F
:1012C0004AEF54E40E941702DC01CB018F83988718
:1012D000A987BA876F81788589859A8520E030E073
:1012E00040E85FE30E94710388232CF481E090E0E2
:1012F0009E838D833FC06F81788589859A8520E0A4
:101300003FEF4FE757E40E94110318164CF56B8529
:101310007C858D859E8520E030E040E251E40E948E
:101320001702DC01CB01BC01CD010E944100DC01B0
:10133000CB019E838D830FC088EC90E09C838B83D0
:101340008B819C810197F1F79C838B838D819E819A
:1013500001979E838D838D819E81009769F714C0CC
:101360006F81788589859A850E944100DC01CB01D7
:101370009E838D838D819E819A83898389819A81C1
:101380000197F1F79A83898383E062E040E00E944D
:101390009B062F960FB6F894DEBF0FBECDBFCF9140
:1013A000DF910895DF93CF93CDB7DEB72F970FB6B8
:1013B000F894DEBF0FBECDBF8F8783E060E040E0D2
:1013C0000E949B0683E061E040E00E949B0682E071
:1013D0006F850E94980883E062E041E00E949B06CE
:1013E00080E090E0A0E4B0E48B879C87AD87BE8767
:1013F0006B857C858D859E8520E030E04AEF54E446
:101400000E941702DC01CB018F839887A987BA87D6
:101410006F81788589859A8520E030E040E85FE338
:101420000E94710388232CF481E090E09E838D83D9
:101430003FC06F81788589859A8520E03FEF4FE72F
:1014400057E40E94110318164CF56B857C858D8539
:101450009E8520E030E040E251E40E941702DC016A
:10146000CB01BC01CD010E944100DC01CB019E8378
:101470008D830FC088EC90E09C838B838B819C8153
:101480000197F1F79C838B838D819E8101979E83C9
:101490008D838D819E81009769F714C06F81788557
:1014A00089859A850E944100DC01CB019E838D8352
:1014B0008D819E819A83898389819A810197F1F731
:1014C0009A83898383E062E040E00E949B062F9626
:1014D0000FB6F894DEBF0FBECDBFCF91DF91089558
:1014E000DF93CF93CDB7DEB76C970FB6F894DEBF1E
:1014F0000FBECDBF80E090E0A0E2B2E4898F9A8F6A
:10150000AB8FBC8F698D7A8D8B8D9C8D20E030E008
:101510004AEF54E40E941702DC01CB018D8B9E8BB5
:10152000AF8BB88F6D897E898F89988D20E030E0F0
:1015300040E85FE30E94710388232CF481E090E08F
:101540009C8B8B8B3FC06D897E898F89988D20E025
:101550003FEF4FE757E40E94110318164CF5698DD1
:101560007A8D8B8D9C8D20E030E040E251E40E942A
:101570001702DC01CB01BC01CD010E944100DC015E
:10158000CB019C8B8B8B0FC088EC90E09A8B898B66
:1015900089899A890197F1F79A8B898B8B899C8924
:1015A00001979C8B8B8B8B899C89009769F714C062
:1015B0006D897E898F89988D0E944100DC01CB0165
:1015C0009C8B8B8B8B899C89988B8F878F85988937
:1015D0000197F1F7988B8F878CE30E94D20980E006
:1015E00090E0A0E8BFE38B879C87AD87BE876B85C3
:1015F0007C858D859E8520E030E04AEF54E40E9492
:101600001702DC01CB018F839887A987BA876F8186
:10161000788589859A8520E030E040E85FE30E9484
:10162000710388232CF481E090E09E838D833FC07A
:101630006F81788589859A8520E03FEF4FE757E4F1
:101640000E94110318164CF56B857C858D859E854F
:1016500020E030E040E251E40E941702DC01CB01BF
:10166000BC01CD010E944100DC01CB019E838D8332
:101670000FC088EC90E09C838B838B819C810197C9
:10168000F1F79C838B838D819E8101979E838D834F
:101690008D819E81009769F714C06F817885898557
:1016A0009A850E944100DC01CB019E838D838D8150
:1016B0009E819A83898389819A810197F1F79A8320
:1016C00089838CE00E94D20981E00E94D2096C9645
:1016D0000FB6F894DEBF0FBECDBFCF91DF91089556
:1016E000DF93CF93CDB7DEB781E00E94D209CF91CF
:1016F000DF910895DF93CF9300D0CDB7DEB7898314
:101700006A838981813019F48A81805C8A838A8125
:1017100080580E94D2090F900F90CF91DF910895C9
:10172000DF93CF93CDB7DEB727970FB6F894DEBF20
:101730000FBECDBF9C838B836D834E832F838D81A2
:10174000882F90E0880F991F880F991F880F991F85
:101750008A838A81805C0E94D20919820EC08981A5
:10176000282F30E08B819C81FC01E20FF31F8081E8
:101770000E94340989818F5F89838981883078F359
:101780008E816F810E947A0B8D810E943409279689
:101790000FB6F894DEBF0FBECDBFCF91DF91089595
:1017A000DF93CF9300D0CDB7DEB79A838983898149
:1017B0009A810097A1F089819A812AE030E0B901ED
:1017C0000E94190FCB010E94D00B89819A812AE0D7
:1017D00030E0B9010E94190F805D0E9434090F901A
:1017E0000F90CF91DF910895DF93CF9300D0CDB7C5
:1017F000DEB79A8389830AC0E981FA8180810E94D9
:10180000340989819A8101969A838983E981FA81D1
:101810008081882389F70F900F90CF91DF910895F1
:10182000DF93CF93CDB7DEB7A7E3B0E0E7E3F0E017
:1018300080818F608C93A7E3B0E0E7E3F0E08081E4
:10184000807F8C93A8E3B0E0E8E3F0E08081806FD4
:101850008C93CF91DF910895DF93CF93CDB7DEB70F
:10186000A8970FB6F894DEBF0FBECDBFCE0142964B
:101870009DA38CA3ECEAF0E0FFA3EEA3F0E1F8A7B0
:10188000EEA1FFA100808EA19FA101969FA38EA330
:10189000ECA1FDA100828CA19DA101969DA38CA32A
:1018A00098A5915098A7E8A5EE2351F7188AD3C0C0
:1018B0008889882F90E0FC01EC55FF4F908181E0F2
:1018C000692F40E00E949B061F86B2C08F85882F3B
:1018D00090E0FC01E855FF4F90819E012E5D3F4F47
:1018E00080E0692FA9010E949B078AA1882309F043
:1018F0009CC080E090E0A8E4B3E48B879C87AD8730
:10190000BE876B857C858D859E8520E030E04AEF23
:1019100054E40E941702DC01CB018F839887A987CA
:10192000BA876F81788589859A8520E030E040E824
:101930005FE30E94710388232CF481E090E09E8392
:101940008D833FC06F81788589859A8520E03FEF40
:101950004FE757E40E94110318164CF56B857C8500
:101960008D859E8520E030E040E251E40E94170220
:10197000DC01CB01BC01CD010E944100DC01CB01A7
:101980009E838D830FC088EC90E09C838B838B813A
:101990009C810197F1F79C838B838D819E810197B8
:1019A0009E838D838D819E81009769F714C06F811E
:1019B000788589859A850E944100DC01CB019E8350
:1019C0008D838D819E819A83898389819A810197F4
:1019D000F1F79A8389838F85282F30E08889482FF3
:1019E00050E0220F331F220F331FCE010196820FCA
:1019F000931F840F951FFC0171968081898B0FC006
:101A00008F85882F90E0FC01E855FF4F90819E0163
:101A10002E5D3F4F80E0692FA9010E949B078AA19C
:101A2000882371F3F989FBA31CC08F858F5F8F8793
:101A30008F85843008F44ACF8889882F90E0FC0194
:101A4000EC55FF4F908181E0692F41E00E949B0699
:101A500088898F5F888B8889843008F429CF85E650
:101A60008BA38BA1A8960FB6F894DEBF0FBECDBF97
:101A7000CF91DF910895DF93CF93CDB7DEB7E29793
:101A80000FB6F894DEBF0FBECDBF82E061E00E94CA
:101A90001F0883E061E00E941F080E94700A81E035
:101AA00061E00E941F0880E060E00E941F0880E063
:101AB0006FE00E949808CE0184969FA78EA7E7E961
:101AC000F0E0F9ABE8ABF5E0FAABE8A9F9A90080E2
:101AD00088A999A9019699AB88ABEEA5FFA50082CC
:101AE0008EA59FA501969FA78EA79AA991509AAB04
:101AF000EAA9EE2351F719A61AA61BA61CA61DA635
:101B000080E060E00E947A0B80E690E00E94F40B97
:101B10001BA21AA20E942C0C89A389A1853609F464
:101B2000A8C08AA19BA1843091050CF0A2C08AA113
:101B3000982F9D5F81E0692F0E947A0B89A10E94F6
:101B400034092AA13BA1CE018996FC01E20FF31FC3
:101B500089A180838AA19BA101969BA38AA38AA1C4
:101B60009BA1181619060CF061C18AA19BA10197CF
:101B7000843091050CF05AC180E090E0A8ECB2E40A
:101B8000898F9A8FAB8FBC8F698D7A8D8B8D9C8D51
:101B900020E030E04AEF54E40E941702DC01CB0160
:101BA0008D8B9E8BAF8BB88F6D897E898F89988D39
:101BB00020E030E040E85FE30E94710388232CF4CA
:101BC00081E090E09C8B8B8B3FC06D897E898F89F3
:101BD000988D20E03FEF4FE757E40E94110318165D
:101BE0004CF5698D7A8D8B8D9C8D20E030E040E244
:101BF00051E40E941702DC01CB01BC01CD010E941F
:101C00004100DC01CB019C8B8B8B0FC088EC90E0FA
:101C10009A8B898B89899A890197F1F79A8B898B9D
:101C20008B899C8901979C8B8B8B8B899C890097D6
:101C300069F714C06D897E898F89988D0E94410053
:101C4000DC01CB019C8B8B8B8B899C89988B8F873C
:101C50008F8598890197F1F7988B8F878AA1982FA4
:101C60009E5F81E0692F0E947A0B8AE20E9434090C
:101C7000DDC089A1853609F0D9C08AA19BA1843035
:101C8000910509F0D3C02AA13BA1CE018996FC01A0
:101C9000E20FF31F108281E090E098A38F8F1E8ED9
:101CA0001D8E1AC02D8D3E8DCE018996FC01E20F4E
:101CB000F31F40812D8D3E8DCE018496FC01E20FF5
:101CC000F31F8081481719F018A21F8E0AC08D8D4E
:101CD0009E8D01969E8F8D8F8D8D9E8D843091056A
:101CE0000CF381E060E00E947A0B8F8D98A1009741
:101CF000C9F00E94700B8AE690E00E94F40B81E02C
:101D000061E00E947A0B88E790E00E94F40B80E08B
:101D100090E0E2960FB6F894DEBF0FBECDBFCF9134
:101D2000DF9108950E94700B88E890E00E94F40B08
:101D300080E090E0AAE7B4E48B879C87AD87BE87FC
:101D40006B857C858D859E8520E030E04AEF54E4EC
:101D50000E941702DC01CB018F839887A987BA877D
:101D60006F81788589859A8520E030E040E85FE3DF
:101D70000E94710388232CF481E090E09E838D8380
:101D80003FC06F81788589859A8520E03FEF4FE7D6
:101D900057E40E94110318164CF56B857C858D85E0
:101DA0009E8520E030E040E251E40E941702DC0111
:101DB000CB01BC01CD010E944100DC01CB019E831F
:101DC0008D830FC088EC90E09C838B838B819C81FA
:101DD0000197F1F79C838B838D819E8101979E8370
:101DE0008D838D819E81009769F714C06F817885FE
:101DF00089859A850E944100DC01CB019E838D83F9
:101E00008D819E819A83898389819A810197F1F7D7
:101E10009A8389830E94700B80E060E00E947A0BB5
:101E200080E690E00E94F40B1BA21AA28FEF89A318
:101E300071CEAA1BBB1B51E107C0AA1FBB1FA6176F
:101E4000B70710F0A61BB70B881F991F5A95A9F763
:101E500080959095BC01CD0108952F923F924F92AD
:101E60005F926F927F928F929F92AF92BF92CF922A
:101E7000DF92EF92FF920F931F93CF93DF93CDB733
:101E8000DEB7CA1BDB0B0FB6F894DEBF0FBECDBFAB
:101E900009942A88398848885F846E847D848C847C
:101EA0009B84AA84B984C884DF80EE80FD800C8185
:101EB0001B81AA81B981CE0FD11D0FB6F894DEBF68
:0C1EC0000FBECDBFED010895F894FFCFD8
:101ECC00456E7465722050572C0050572069732052
:101EDC00436F72726563740048656C6C6F2C4F7045
:101EEC00656E20446F6F72005057206E6F742063C4
:101EFC006F7272656374003230323400000000007F
:101F0C000000000000010203000102033738392FE2
:0C1F1C003435362A3132332D43303D2B52
:00000001FF
